:0400000002001332B5
:03000B00020221CD
:07006C00750800750900751D
:060073000A17750B007571
:0600790012007513007572
:06007F0014007515007568
:060085001600751700755E
:06008B0018307519FF7525
:070091001A38751BFFE4F5AE
:040098001CF51DC274
:03009C0000C2019E
:03009F0002000E4E
:05000E001201E880FE74
:0800A2007513017512007A00CC
:0300AA00BA060093
:0B00AD005009EA240CF876000A80F2EB
:0100B8002225
:0E00B900758970758CFD758A67D28CD2A9D2BC
:0400C700ACD2AF22E6
:0A00CB0075F00AE50884E5F0F50C75
:0A00D50075F00AE50884F50D75F0DA
:0A00DF000AE50984E5F0F50E75F05E
:0A00E9000AE50984F50F75F00AE539
:0A00F3000A84E5F0F51075F00AE547
:0500FD000A84F5112248
:09010200D296851882851983E567
:05010B0013F0AA1AAB7D
:040110001BE51224B5
:0C0114000CF8E690024C938A828B83F07A
:03012000C2962262
:0401230010010122A4
:060127000508E4F51CF5DB
:07012D001D743CB5081775B5
:0701340008000509743CB549
:06013B00090D7509000525
:070141000A7418B50A0375EA
:020148000A00AB
:01014A002292
:07014B00E514FAB5150302EB
:0201520001D8D2
:07015400EAB516030201D811
:07015B00EAB517030201D809
:0A016200BA21117417B50A028004D7
:04016C00050A8006FA
:06017000750A001200CB2D
:0A0176007422B5140EE50A600415AA
:030180000A8003EF
:03018300750A17E3
:030186001200CB99
:0A0189007411B51411743BB509029E
:020193008004E6
:0401950005098003D5
:03019900750900E5
:03019C001200CB83
:0A019F007412B5140EE50960041592
:0301A900098003C7
:0301AC0075093B97
:0301AF001200CB70
:0A01B2007405B51411743BB5080282
:0201BC008004BD
:0401BE0005088003AD
:0301C200750800BD
:0301C5001200CB5A
:0A01C8007406B5140BE50860041579
:0301D2000880039F
:0301D50075083B6F
:0501D800AA168A17AA17
:0401DD00158A16AABF
:0401E100148A1575F2
:0301E500140022E1
:0601E8001200A21200B992
:0501EE0010000280FB7F
:0901F300120102051230B506E507
:0401FC00134514F59E
:0102000014E9
:05020100E5132513F5D3
:07020600137440B5130D75E0
:06020D001301751200E56B
:0602130014600312014B10
:080219001201231200CB80CD7D
:0E022100C0E0C0D075D000758AFC758CE3D2A9
:05022F0000051CE4B510
:040234001C02051D86
:0A023800C3E51D648094844002D2E7
:0102420001BA
:05024300D0D0D0E03234
:0A024C003F065B4F666D7D077F6F74
:06004200E47801F6D8FD90
:080020007900E94400601B7A3D
:05002800009002567873
:03002D000075A0BB
:0A00300000E493F2A308B8000205F3
:08003A00A0D9F4DAF275A0FF71
:080048007800E84400600A7929
:030050000075A098
:0600530000E4F309D8FCF3
:080059007800E84400600C7916
:0B00610000900000E4F0A3D8FCD9FAE6
:03001300758120D4
:0A001600120248E582600302000EAA
:040248007582002299
:00000001FF
